:020000040800F2
:1000000000000220AD20000895180008971800088D
:10001000991800089B1800089D18000800000000AF
:100020000000000000000000000000009F18000811
:10003000A118000800000000A3180008A518000877
:10004000FD200008FD200008FD200008FD2000081C
:10005000FD200008FD200008FD200008FD2000080C
:10006000FD200008FD200008FD200008FD200008FC
:10007000FD200008FD200008FD200008FD200008EC
:10008000FD200008FD200008FD2000080000000001
:10009000000000000000000000000000FD2000083B
:1000A000FD200008FD200008FD200008FD200008BC
:1000B000FD200008FD200008FD200008FD200008AC
:1000C000FD200008FD200008FD200008FD2000089C
:1000D000FD200008FD200008FD20000800000000B1
:1000E000FD200008FD200008FD20000800000000A1
:1000F000000000000000000000000000FD200008DB
:1001000000000000FD200008FD200008FD20000880
:1001100000000000000000000000000000000000DF
:10012000FD200008FD200008FD200008FD2000083B
:10013000FD2000080000000000000000000000009A
:10014000000000000000000000000000FD2000088A
:10015000FD200008FD200008FD200008FD2000080B
:10016000FD200008FD200008000000000000000045
:10017000000000000000000000000000000000007F
:1001800000000000FD20000800000000000000004A
:08019000FD200008FD2000081D
:1001980010B5054C237833B9044B13B10448AFF3B9
:1001A80000800123237010BD7800002000000000AB
:1001B800B831000808B5034B1BB103490348AFF336
:1001C800008008BD000000007C000020B831000855
:1001D80072B6FEE700B595B03022002108A801F0FC
:1001E800E5FF002303930493059306930793019374
:1001F8001E4A116C41F080511164126C02F0805259
:100208000192019A02931A4A116841F4404111601F
:10021800126802F440420292029A022208920121D4
:100228000B9110210C910E920F93082310936423C5
:10023800119312920423139308A801F04FFB88B975
:100248000F23039302230493002305934FF4805252
:1002580006920793032103A801F0A6FD20B915B063
:100268005DF804FBFFF7B4FFFFF7B2FF0038024068
:100278000070004010B58EB001F0CAFEFFF7AAFF6B
:1002880001230D931F4C00234FF48052214609A8E7
:1002980000F079F900234FF48052214605A800F0B8
:1002A80072F900230122184901A800F043F901213D
:1002B80005A800F090F90DA901A800F05DF90D9BC3
:1002C800012B04D0002109A800F085F9F3E74FF4C9
:1002D8002F7001F0C9FE012109A800F07CF98220E5
:1002E80001F0C2FE002109A800F075F9E3E7074B09
:1002F8000193074B0593064B099301F0D7FFF8E7E5
:10030800F9E700BF000C024000000240D8310008A5
:10031800EC31000886B002604160354B994249D003
:1003280015DD344B994254D003F58063994233D19B
:10033800314B836000230493304B1A6B42F0100258
:100348001A631B6B03F010030493049B24E0A3F5CA
:100358000063994212D003F5806399421CD1284B5F
:10036800836000230193254B1A6B42F002021A6343
:100378001B6B03F002030193019B0DE0214B83608B
:10038800002300931D4B1A6B42F001021A631B6B8A
:1003980003F001030093009B00230593174B1A6B8E
:1003A80042F080021A631B6B03F080030593059BE0
:1003B80006B070470E4B8360002302930F4B1A6BF5
:1003C80042F004021A631B6B03F004030293029BBE
:1003D800E2E7084B836000230393084B1A6B42F053
:1003E80008021A631B6B03F008030393039BD3E70C
:1003F80000080240000C0240001002400038024091
:100408000004024000000240002957D08C46002A10
:1004180056D000230F2B57D810B52FE0DCF8080072
:100428005C004FF0030E0EFA04FE20EA0E0E9089CF
:10043800A04040EA0E00CCF80800DCF8040020EAEE
:10044800010E5068C0F30011994041EA0E01CCF842
:1004580004101EE0DCF800004FEA430E032101FA05
:100468000EF120EA0100918801F0030101FA0EF172
:100478000143CCF8001001330F2B23D801219940F8
:10048800106831EA0000F6D1908800F003000128D6
:10049800C4D0918801F003010329DBD0DCF80C00FB
:1004A8004FEA430E032101FA0EF120EA01001189F7
:1004B80001FA0EF10143CCF80C10CBE7002070478D
:1004C80000207047012010BD0120704741B11BB1C9
:1004D80092B28A610120704712048A610120704734
:1004E8000020704708B50B1E18BF01234268C16879
:1004F8000430FFF7EBFF08BD0B6992B2134201D03D
:10050800012070470020704708B54268C168043070
:10051800FFF7F2FF08BD0B4651B1496992B202EAF2
:10052800010022EA010242EA00429A610120704772
:1005380000207047F0B585B0044617461E46051DD5
:100548002846FFF7E7FE0B4B236000236268E1684B
:100558002846FFF7BBFF009700230193029601236B
:1005680003936A46E1682846FFF74EFF204605B028
:10057800F0BD00BFD831000810B50C4603689B6871
:100588009847206010BDF0B585B0044617461E4652
:10059800051D2846FFF7BEFE0A4B2360002362684C
:1005A800E1682846FFF792FF00970123019302961E
:1005B80003936A46E1682846FFF726FF204605B000
:1005C800F0BD00BFEC31000808B54268C1680430CE
:1005D800FFF7A1FF08BD08B503689B68984708BDE9
:1005E80030B585B0044643680093012501954369F9
:1005F800029303956A46C1680430FFF705FF257426
:1006080005B030BD38B504461D460430FFF782FEFC
:10061800044B23600123237465612046FFF7E0FF44
:10062800204638BDB432000810B50446037C2BB10F
:100638006268E168201DFFF75FFF10BDFFF7D0FF7C
:10064800F6E710B50C46FFF7EFFF206010BD10B5B8
:1006580084B00446436800930123019342690292DF
:1006680003936A46C1680430FFF7CEFE0023237463
:1006780004B010BD38B504460D46037C43B92B1EA3
:1006880018BF01236268E168201DFFF71FFF38BD0E
:10069800FFF7DDFFF3E708B5FFF7ECFF08BD00BF84
:1006A80053B94AB9002908BF00281CBF4FF0FF31D1
:1006B8004FF0FF3001F0DEB8ADF1080C6DE904CE63
:1006C80000F006F8DDF804E0DDE9022304B0704725
:1006D8002DE9F047089D04468E46002B4DD18A42ED
:1006E800944669D9B2FA82F252B101FA02F3C2F120
:1006F800200120FA01F10CFA02FC41EA030E9440B1
:100708004FEA1C48210CBEFBF8F61FFA8CF708FBD1
:1007180016E341EA034306FB07F199420AD91CEBA9
:10072800030306F1FF3080F01F81994240F21C81DB
:10073800023E63445B1AA4B2B3FBF8F008FB103323
:1007480044EA034400FB07F7A7420AD91CEB040458
:1007580000F1FF3380F00A81A74240F20781644428
:10076800023840EA0640E41B00261DB1D4400023AD
:10077800C5E900433146BDE8F0878B4209D9002D11
:1007880000F0EF800026C5E9000130463146BDE89B
:10079800F087B3FA83F6002E4AD18B4202D3824205
:1007A80000F2F980841A61EB030301209E46002DB4
:1007B800E0D0C5E9004EDDE702B9FFDEB2FA82F209
:1007C800002A40F09280A1EB0C014FEA1C471FFA67
:1007D8008CFE0126200CB1FBF7F307FB131140EA4E
:1007E80001410EFB03F0884208D91CEB010103F11B
:1007F800FF3802D2884200F2CB804346091AA4B2DD
:10080800B1FBF7F007FB101144EA01440EFB00FEB0
:10081800A64508D91CEB040400F1FF3102D2A64515
:1008280000F2BB800846A4EB0E0440EA03409CE7B4
:10083800C6F12007B34022FA07FC4CEA030C20FA61
:1008480007F401FA06F31C43F9404FEA1C4900FA81
:1008580006F3B1FBF9F8200C1FFA8CFE09FB1811FE
:1008680040EA014108FB0EF0884202FA06F20BD971
:100878001CEB010108F1FF3A80F08880884240F2C1
:100888008580A8F102086144091AA4B2B1FBF9F005
:1008980009FB101144EA014100FB0EFE8E4508D900
:1008A8001CEB010100F1FF346CD28E456AD9023885
:1008B800614440EA0840A0FB0294A1EB0E01A1426A
:1008C800C846A64656D353D05DB1B3EB080261EBD8
:1008D8000E0101FA07F722FA06F3F1401F43C5E9B2
:1008E800007100263146BDE8F087C2F12003D840E8
:1008F8000CFA02FC21FA03F3914001434FEA1C472A
:100908001FFA8CFEB3FBF7F007FB10360B0C43EA1B
:10091800064300FB0EF69E4204FA02F408D91CEBCB
:10092800030300F1FF382FD29E422DD902386344C9
:100938009B1B89B2B3FBF7F607FB163341EA034169
:1009480006FB0EF38B4208D91CEB010106F1FF38B8
:1009580016D28B4214D9023E6144C91A46EA0046AF
:1009680038E72E46284605E70646E3E61846F8E641
:100978004B45A9D2B9EB020864EB0C0E0138A3E78A
:100988004646EAE7204694E74046D1E7D0467BE76B
:10099800023B614432E7304609E76444023842E7E3
:1009A80003685A004CBF43F0004323F00043184447
:1009B800704700BF2DE9F84329B34F1E044615467A
:1009C8003E464FF0000808EB060101EBD1714910D3
:1009D80004EBC1094846FFF7E3FF0346C8000830A7
:1009E8008F42204409D0AB4209D8FFF7D9FF01381C
:1009F800A8420AD201F10108E5E7AB4205D98845CA
:100A080001D04E1EDFE74FF000094846BDE8F883E5
:100A1800012807D0022807D0044B00280CBF18462D
:100A2800002070470248704702487047F1100008DC
:100A3800F5100008F910000830B5234B83B00446C0
:100A48008D1E3BB301A92846AFF30080E8B1019998
:100A58002A46FFF7AFFF0146B8B1FFF7A1FF4B6881
:100A6800A064012B2CD0002B01F1040024DBFFF73C
:100A780097FF0023C4E913030368002B11DBFFF77A
:100A88008FFF2061002003B030BD002309202361BF
:100A980003B030BD0D4B0E49C91AC9101846019153
:100AA800D6E7C3F30360FFF7B3FF0028206114BF44
:100AB8000020092003B030BD0123C4E91303DBE79C
:100AC800002323610520DEE7000000008C340008C5
:100AD8007C3500080368DA0710B5044606D49B077E
:100AE80000F1480009D500F05BFC2368590709D5D7
:100AF8001A070ED5DB0613D510BD00F049FC236894
:100B08005907F5D404F1D00000F052FC23681A0705
:100B1800F0D404F5A87000F053FC2368DB06EBD48E
:100B280004F5E870BDE8104000F08EBC092070475D
:100B38000346006800B11844704700BF704700BF03
:100B480070B504460E46316C2046FFF775FF054622
:100B580088B9326C62612369324621460120984780
:100B68000828F0D0072806D12846316CFFF7E6FFA1
:100B7800301D00F001FC02F04FFA00BF2DE9F047EC
:100B88000D1DD0F80C80D0F81890074614460FCDEC
:100B9800ADF5727D0DF10C0CACE80F000FCDACE893
:100BA8000F000FCDACE80F0095E80F0002AE4FF034
:100BB800000E8CE80F00C6F800E020E0336C7B6183
:100BC8004FF4F07231467AA802F036FA3B697AAAF5
:100BD800394650469847889B73642146CDE9006999
:100BE80005463B463A460120C0470446E0B94FF463
:100BF800F0727AA9304602F01FFA082D1AD1316C2A
:100C08003846FFF719FF09345FFA84FA05460028C9
:100C1800D4D0B36B73643A46CDE900693B464AF0D9
:100C280010010120C04700B1092528460DF5727D45
:100C3800BDE8F087072DF7D12046316CFFF77EFF1E
:100C480003A800F099FB00BF406C7047F0B5CB6B70
:100C58000B6401F1040C0E460546BCE80F00F9B020
:100C680001AC0FC4BCE80F000FC4BCE80F000FC4F0
:100C78009CE80F004FF0FF3784E80F00009706E06C
:100C88002B696A46294698470828044608D11099CE
:100C98002846FFF7D1FE0028F2D0092079B0F0BD30
:100CA8006846FFF717FF062CF7D131462846FFF7AD
:100CB80047FF00BFC160D96B8261196400221946E1
:100CC8005CE700BF70B5C66843690B64AEB90369D9
:100CD8000A4604460D46014602209847072805D0D3
:100CE80008280FD129462046FFF72AFF3046296CED
:100CF800FFF724FF281D00F03FFB0122FFF73EFF0E
:100D080002F08AF902F088F9C2681AB1CA6B0A645B
:100D1800002233E79AE700BF704700BF83680146A7
:100D28000BB1012018477047012912D009D873B9AF
:100D38000F2A0CD800EB820218465368009A1360F9
:100D480070470339012994BF01200220704702200F
:100D580070470846704700BF00B585B00A460023B3
:100D680003A900911946FFF7DFFF039805B05DF866
:100D780004FB00BF012912D009D873B90F2A0CD877
:100D880000EB8200009A12684260184670470339E7
:100D9800012994BF012002207047022070470846AD
:100DA800704700BF10B584B0002303AC03920094D1
:100DB8000A461946FFF7DEFF04B010BD70B5D36BC5
:100DC800136402F1040C05460C46BCE80F00ADF5AF
:100DD8000E7D0DF15C0EAEE80F00BCE80F00AEE82A
:100DE8000F00BCE80F00AEE80F009CE80F004FF0C2
:100DF800FF368EE80F00169610E0FFF7D3FF214666
:100E080016A8A847034616AA6946082083B9049B72
:100E18009847052806460CD0092809D0269968461F
:100E2800FFF70AFE03466A460C2116A8002BE4D0F9
:100E3800092616A8FFF74EFE30460DF50E7D70BD4B
:100E48002DE9F04FCC6C89B01E4654F8043B06944B
:100E58000D46174600F00308002E79D01A0C1B0423
:100E680005938DF81D200223D2B204EB82048DF87D
:100E78001C302B6DB8F1020F08BFAC6B13F00103E7
:100E88000CD005A9384600F079FB18B9082009B03C
:100E9800BDE8F08F092009B0BDE8F08FD4F800A0B4
:100EA800BAF1000FEDD0019300F008030293022E6F
:100EB8004AD0B4F800A0B4F802900434AB6C29F01E
:100EC800010B0F2138469B44FFF746FF834539D86D
:100ED8002AF001039B44834594BF002001204FEA78
:100EE800490303F002030AF0010A43EA0A03012B4B
:100EF80049D0022B32D0002BCCD1B8F1000F02D050
:100F0800002840F0CD800434D4F800A0BAF1000FD6
:100F1800CDD105A9384600F031FB0028BAD1019B94
:100F2800002BB3D00F213846FFF716FF0E210246DB
:100F38003846FFF737FF38466A4A0F21FFF732FF76
:100F48000720A8E70020CAE7D4F804900834B5E7DA
:100F58001B0205930323ADF81C308AE7236823F0AE
:100F6800004BB8F1000F45D128B1029A002A5CD095
:100F7800BBF1000F74D0002B00DA04340BF1010B25
:100F880004EB8B04C0E7B8F1000F19D1B0B1636866
:100F98002268991C4FEAD2723FF47CAF05F15801E0
:100FA8000133049100F09080201DFFF7C1FD04ABD0
:100FB8000146284601F09EF900285BD10834A3E7D2
:100FC8000D213846D5F82090FFF7C6FE8145F5D1AA
:100FD800AB6A9C42F2D12046FFF7E2FC0F210246A1
:100FE8003846FFF7DFFE38462A460021FFF7DAFECB
:100FF800072050E70D213846D5F82090FFF7ACFEC2
:10100800814501D02368B6E7AB6A9C42FAD1042334
:101018000022C5E90B23E318C5F828B06B632368E1
:10102800002B59DB01230193A8E705F15803CDF8FC
:101038000C8004F1040AB04691461E460EE0504664
:101048000496FFF775FD0022014604AB284609F116
:1010580001090AF1040A01F04DF9E0B9D945EED1C8
:101068000D213846FFF778FE049BAC62C5E90803FA
:10107800062010E781460D213846FFF76DFEB9F1CD
:10108800020F286225D12B46049A43F82C2F6B6255
:10109800AC620620FFE646462368DDF80C806AE766
:1010A8002046FFF77DFC04340246AC63284614460C
:1010B80001F07EF900283FF4EDAE384622460F21B4
:1010C800FFF770FE0720E6E60D213846FFF744FEDD
:1010D8002862049B6B62DBE70BF1010004EB8000E4
:1010E8007AE700BF612F00080023A9E60123A7E6DD
:1010F8000223A5E62DE9F0430646C3B015461C4673
:10110800042900F2BF80DFE801F09E57BD2D0300DF
:10111800002C40F0B780102A00F2B4800368D8068B
:1011280000F1F98020AF384600F098F9B46B3946E1
:1011380000234FF0010C0CFA03F22A42204603F177
:10114800010303D050F8042B0A600446042B01F174
:101158000401F0D13846B46300F076F9002043B0BA
:10116800BDE8F083032C40F08D8094B204EB124369
:10117800102B4FEA124500F2858003681F0700F123
:10118800D28020AF384600F03DF9B26B07EBC501BD
:1011980054B10B46D01A01EBC401E4001D5843F8C2
:1011A800045B8B42FAD122443846B26300F008F956
:1011B800002043B0BDE8F083012C4FEA124895B2F5
:1011C8005CD0052C5ED108EB0509B9F1200F59D880
:1011D800B8F10F0F79D9A946002D40F08A80B36B7A
:1011E8006DB320AF4FF0000907EBC807043F03EBCE
:1011F800C50553F8041B47F8041FAB42F9D1B9F1F0
:10120800000F0FD06F464146102938BF102107EB59
:10121800C101843903EBC90553F8040B41F8040FE5
:10122800AB42F9D1012C00F08680B8F10F0FB563FD
:1012380047D9B9F1000F02D0684600F0B9F800208C
:1012480043B0BDE8F083ECB9806B23461FFA82FCFB
:101258000124371D04FA03F212EA0C0F014604D0E8
:1012680051F8042B47F8232008460133102BF1D1FD
:1012780015F40055E3D1B063284604E008EB0503F4
:10128800102B03D9022043B0BDE8F083B8F10F0F4B
:10129800F8D83368DA0706D5304623F0030340F858
:1012A800483B00F079F820AF384600F075F8B36B8A
:1012B800002D97D11D460435B563384600F068F80F
:1012C800BDE720A800F06CF8B3E7B9F1100F40D9DA
:1012D800A9F110093368D90708D523F0010330466E
:1012E80043F0020340F8483B00F05EF8B9F1000F04
:1012F80032D033685A0720D4B8F10F0F25D96F467A
:101308003846C8F1100500F057F8002DB36B7FF789
:101318007AAF20AF68E723F01003336006F5E87072
:1013280000F09CF8FEE623F00803036000F5A870BF
:1013380000F068F825E720AFBDE7304623F0040346
:1013480040F8D03B00F038F8D6E720A800F02CF899
:10135800D5E74FF00009BDE7B8F10F0F3FF63FAFF3
:1013680020AF384600F020F8B36B002D7FF43AAF79
:10137800384600F015F862E700F1340191E83800CA
:101388009C46A6464CF8045D90E8FF0FE54600BD74
:1013980090EC210B704700BF80EC210B704700BF19
:1013A80090EC200B704700BF80EC200B704700BF0B
:1013B800D0EC200B704700BFC0EC200B704700BF7B
:1013C800F0EC0201F0EC0211F0EC0221F0EC023139
:1013D800F0EC0241F0EC0251F0EC0261F0EC027129
:1013E800F0EC0281F0EC0291F0EC02A1F0EC02B119
:1013F800F0EC02C1F0EC02D1F0EC02E1F0EC02F109
:10140800704700BFE0EC0201E0EC0211E0EC0221C1
:10141800E0EC0231E0EC0241E0EC0251E0EC026168
:10142800E0EC0271E0EC0281E0EC0291E0EC02A158
:10143800E0EC02B1E0EC02C1E0EC02D1E0EC02E148
:10144800E0EC02F1704700BFB0FC0181B0FC0191F3
:10145800B0FC01A1B0FC01B1704700BFA0FC018144
:10146800A0FC0191A0FC01A1A0FC01B1704700BF44
:10147800EC4600B52DE900502DE9FF1F4FF00003A1
:101488002DE90C0001A9FFF7E1FBDDF840E012B0FF
:10149800704700BFEC4600B52DE900502DE9FF1F4D
:1014A8004FF000032DE90C0001A9FFF70BFCDDF854
:1014B80040E012B0704700BFEC4600B52DE900507F
:1014C8002DE9FF1F4FF000032DE90C0001A9FFF7DC
:1014D8001BFCDDF840E012B0704700BFEC4600B5D9
:1014E8002DE900502DE9FF1F4FF000032DE90C00F6
:1014F80001ABFFF7DFFBDDF840E012B0704700BF3B
:10150800EC4600B52DE900502DE9FF1F4FF0000310
:101518002DE90C0001AAFFF751FCDDF840E012B0FC
:10152800704700BF027A03467AB9427AA2B141688D
:10153800013A10B44272086803220C1D1A720202A2
:101548005C60000E10BC1A6070470068013A1A729D
:1015580002021A60000E7047B020704700B585B0CF
:10156800002303AA009219460C22FFF7DDFB03981B
:1015780005B05DF804FB00BFF0E700BF2DE9F043BC
:10158800054685B00E464FF000083046FFF7CAFF03
:10159800B028044600F0BA80070620D500F0F00312
:1015A800802B4DD0902B36D0A02B60D0B02B74D090
:1015B800C02B00F08B8000F0F803D02B0BD100F08B
:1015C80007020132052342F4002201212846FFF7D1
:1015D80091FD0028D9D0092005B0BDE8F08383002B
:1015E800DBB21F1D0DF10C0900231946CDF8009040
:1015F8000D222846FFF798FB039BCDF80090600664
:101608004CBFDF1BFF1800230D22194628460397FD
:10161800FFF7B0FBB9E700F00D030D2BDBD003AFEC
:10162800002300F00F02194600972846FFF77CFBBD
:10163800002300970D2219462846FFF79BFBA4E7D5
:101648003046FFF76FFF24022043B0F5004FC2D0A9
:1016580004010023A2B219462846FFF74BFD0028D3
:10166800B9D114F4004F18BF4FF001088DE7C243F9
:1016780002F007034FF47F621A41010702F47F6208
:101688004FF0000348BF42F4804219462846FFF74E
:1016980031FD00283FF479AF9DE7B1283BD0B2284F
:1016A80000F09380B32841D000F0FC03B42B92D013
:1016B80000F007020132012342F4002219462846AD
:1016C800FFF718FD00283FF460AF84E7C6284AD02A
:1016D800C72854D000F0F803C02B63D0C82868D0BE
:1016E800C9287FF478AF3046FFF71CFF020300F0EB
:1016F8000F0002F47022013002430121052328461D
:10170800FFF7F8FC00283FF440AF64E7B8F1000F9A
:1017180018D0002060E73046FFF704FF0246002893
:101728003FF459AF10F0F003C8D054E73046FFF744
:10173800F9FE020300F00F03013302F470221A438A
:101748000123BBE703AC43460E22414600942846DA
:10175800FFF7EAFA009443460F2241462846FFF76E
:1017680009FB404638E73046FFF7DCFE020300F08D
:101778000F03013302F470221A4303239EE7304615
:10178800FFF7D0FE024600283FF425AF10F0F00323
:101798007FF421AF04212846FFF7ACFC00283FF472
:1017A800F4AE18E700F00F020132032342F42022BE
:1017B80084E73046FFF7B6FE00F0F00200F00F03B2
:1017C8001032013343EA023297E700230DF10C0986
:1017D8000D221946CDF800902846FFF7A5FA3046A5
:1017E800FFF7A0FE02064FF002040CD5039B00F0A1
:1017F8007F00A040184403903046FFF793FE03068D
:1018080004F10704F2D4039BCDF8009000F07F02A6
:10181800A24003F501731A440023039219460D22CE
:101828002846FFF7A7FAB0E610B5C26C536884B033
:101838004FF0030C08321C0208461B0E01A9019444
:1018480002928DF80CC08DF80D30FFF797FE04B0AA
:1018580010BD00BF08B5FFF78FFE806C08BD00BF44
:1018680008B5FFF789FEC06CC379023300EB83002B
:1018780008BD00BF704700BF10F8012B11F8013BED
:10188800012A28BF9A42F7D0D01A7047FEE7FEE730
:10189800FEE7FEE7FEE770477047704708B500F0BF
:1018A800D1FB08BD82B0002100910B4B5A6C42F469
:1018B80080425A645A6C02F480420092009A019164
:1018C8001A6C42F080521A641B6C03F08053019327
:1018D800019B02B0704700BF00380240002800F0AA
:1018E800E08170B582B00446036813F0010F3BD065
:1018F8009F4B9B6803F00C03042B2CD09C4B9B68DC
:1019080003F00C03082B21D06368B3F5803F4FD058
:10191800B3F5A02F52D0964B1A6822F480321A6081
:101928001A6822F480221A606368002B50D000F0F5
:1019380095FB05468E4B1B6813F4003F14D100F04D
:101948008DFB401B6428F5D90320B1E1884B5B6807
:1019580013F4800FD8D0864B1B6813F4003F03D0D4
:101968006368002B00F09F81236813F0020F54D0A6
:101978007F4B9B6813F00C0F3ED07D4B9B6803F0A8
:101988000C03082B33D0E368002B68D0794B012275
:101998001A6000F063FB0546754B1B6813F0020FD5
:1019A80054D100F05BFB401B0228F5D903207FE1EE
:1019B8006F4A136843F480331360B5E76C4B1A68B9
:1019C80042F480221A601A6842F480321A60ABE747
:1019D80000F044FB0546664B1B6813F4003FC3D078
:1019E80000F03CFB401B6428F5D9032060E1604B04
:1019F8005B6813F4800FC6D15D4B1B6813F0020FB0
:101A080003D0E368012B40F05081594A136823F052
:101A1800F803216943EAC1031360236813F0080F30
:101A280042D063696BB3534B0122C3F8802E00F098
:101A380015FB05464E4B5B6F13F0020F34D100F0D7
:101A48000DFB401B0228F5D9032031E1484A1368F1
:101A580023F0F803216943EAC1031360DDE7454B2E
:101A680000221A6000F0FAFA0546414B1B6813F091
:101A7800020FD2D000F0F2FA401B0228F5D9032059
:101A880016E13C4B0022C3F8802E00F0E7FA054629
:101A9800374B5B6F13F0020F06D000F0DFFA401BE4
:101AA8000228F5D9032003E1236813F0040F77D047
:101AB8002F4B1B6C13F0805F33D1002301932C4B09
:101AC8001A6C42F080521A641B6C03F08053019325
:101AD800019B0125284B1B6813F4807F23D0A36842
:101AE800012B34D0052B38D0214B1A6F22F001027C
:101AF8001A671A6F22F004021A67A368002B3DD0F8
:101B080000F0ACFA06461A4B1B6F13F0020F46D1D1
:101B180000F0A4FA801B41F288339842F3D90320DD
:101B2800C6E00025D6E7144A136843F480731360AF
:101B380000F094FA0646104B1B6813F4807FCED150
:101B480000F08CFA801B0228F5D90320B0E0084A7F
:101B5800136F43F001031367CFE7054B1A6F42F089
:101B680004021A671A6F42F001021A67C5E700BF3C
:101B780000380240000047420070004000F06EFA52
:101B88000646524B1B6F13F0020F08D000F066FA9E
:101B9800801B41F288339842F3D9032088E0EDB9DD
:101BA800A369002B00F08380484A926802F00C0277
:101BB800082A51D0022B17D0454B00221A6600F094
:101BC8004DFA0446414B1B6813F0007F42D000F0E9
:101BD80045FA001B0228F5D9032069E03B4A136C3B
:101BE80023F080531364DBE7394B00221A6600F0B8
:101BF80035FA0546354B1B6813F0007F06D000F018
:101C08002DFA401B0228F5D9032051E0E369226A26
:101C18001343626A43EA8213A26A5208013A43EA0A
:101C28000243E26A43EA0263284A5360284B0122CE
:101C38001A6600F013FA0446244B1B6813F0007F61
:101C480006D100F00BFA001B0228F5D903202FE07B
:101C580000202DE000202BE0012B2BD01B4B5B68D4
:101C680003F48001E269914226D103F03F02216A20
:101C78008A4223D1616A47F6C0721A40B2EB811FCB
:101C88001ED103F44031A26A5208013AB1EB024F67
:101C980018D103F07063E26AB3EB026F14D100202D
:101CA80006E001207047012002E0012000E000204A
:101CB80002B070BD0120FBE70120F9E70120F7E73A
:101CC8000120F5E70120F3E70120F1E700380240A1
:101CD8000000474208B5314B9B6803F00C03042B06
:101CE80057D0082B57D12D4B5A6802F03F025B683A
:101CF80013F4800F2AD0294B5968C1F3881C4FEA86
:101D08004C11B1EB0C006EEB0E0E4FEA8E1343EA4A
:101D180090638101091A63EB0E03DB0043EA5173F8
:101D2800C90011EB0C0C43F10003590200234FEAE0
:101D38004C2041EADC51FEF7B3FC184B5B68C3F357
:101D4800014301335B00B0FBF3F025E0134B596806
:101D5800C1F3881C4FEA4C11B1EB0C006EEB0E0E70
:101D68004FEA8E1343EA90638101091A63EB0E036D
:101D7800DB0043EA5173C90011EB0C0C43F100037B
:101D8800990200234FEA8C2041EA9C51FEF788FC17
:101D9800D3E7034800E0034808BD00BF003802400D
:101DA80000127A000024F400002800F09B8070B52F
:101DB8000D4604464F4B1B6803F007038B4208D2BD
:101DC800CBB24C4A1370136803F007038B4240F000
:101DD8008B80236813F0020F17D013F0040F04D080
:101DE800454A936843F4E0539360236813F0080F5F
:101DF80004D0414A936843F4604393603E4A936831
:101E080023F0F003A1680B439360236813F0010FDC
:101E180032D06368012B21D09A1E012A25D9364A6F
:101E2800126812F0020F61D033498A6822F0030267
:101E380013438B6000F012F906462F4B9B6803F0A2
:101E48000C036268B3EB820F16D000F007F9801B11
:101E580041F288339842F0D9032042E0264A1268BA
:101E680012F4003FE0D101203BE0234A126812F04F
:101E7800007FD9D1012034E01E4B1B6803F0070313
:101E8800AB4207D9EAB21B4B1A701B6803F0070371
:101E9800AB422DD1236813F0040F06D0164A93687D
:101EA80023F4E053E1680B439360236813F0080FB1
:101EB80007D0114A936823F46043216943EAC103B8
:101EC8009360FFF707FF0C4B9B68C3F303130B4AA0
:101ED800D35CD8400A4B18600A4B186800F072F8B7
:101EE800002070BD012070470120FAE70120F8E7C3
:101EF8000120F6E7003C024000380240503200085A
:101F08000800002004000020074AD36823F4E06397
:101F18001B041B0C000200F4E060034343F0BF63A2
:101F280043F40033D360704700ED00E000B5194B6F
:101F3800DB68C3F30223C3F1070CBCF1040F28BF0D
:101F48004FF0040C03F1040EBEF1060F18D9033B41
:101F58004FF0FF3E0EFA0CFC21EA0C0199400EFAF4
:101F680003F322EA0303194300280BDB0901C9B272
:101F780000F1604000F5614080F800135DF804FB53
:101F88000023E5E700F00F000901C9B2024B19541C
:101F9800F4E700BF00ED00E014ED00E00138B0F117
:101FA800807F0BD24FF0E0235861054AF02182F878
:101FB80023100020986107221A617047012070479A
:101FC80000ED00E010B504460E4B18784FF47A7314
:101FD800B3FBF0F30C4A1068B0FBF3F0FFF7DEFF39
:101FE80068B90F2C01D901200AE0002221464FF0E0
:101FF800FF30FFF79BFF054B1C60002000E001202D
:1020080010BD00BF000000200800002004000020D0
:1020180008B50B4B1A6842F400721A601A6842F449
:1020280080621A601A6842F480721A600320FFF70F
:102038006BFF0F20FFF7C6FFFFF734FC002008BD39
:10204800003C0240034A1168034B1B780B441360A1
:10205800704700BF9400002000000020014B186862
:10206800704700BF9400002038B50446FFF7F6FF1C
:102078000546B4F1FF3F02D0044B1B781C44FFF720
:10208800EDFF401BA042FAD338BD00BF000000207E
:10209800034AD2F8883043F47003C2F88830704796
:1020A80000ED00E0DFF834D00D480E490E4A002359
:1020B80002E0D458C4500433C4188C42F9D30B4AF4
:1020C8000B4C002301E013600432A242FBD3FFF75C
:1020D800DFFF00F047F8FEF7CDF870470000022058
:1020E80000000020780000208435000878000020D7
:1020F800B0000020FEE70000014B0360704700BFFE
:10210800D8310008014B0360704700BFEC3100086C
:10211800014B0360704700BFB432000810B5044695
:10212800034B0360182100F0BFF8204610BD00BF24
:10213800B432000810B50446034B0360102100F0C8
:10214800B3F8204610BD00BFEC31000810B50446B6
:10215800034B0360102100F0A7F8204610BD00BF14
:10216800D831000870B50D4D0D4C641BA410002625
:10217800A64209D10B4D0C4C01F01AF8641BA410AF
:102188000026A64205D170BD55F8043B9847013694
:10219800EEE755F8043B98470136F2E77C3500082E
:1021A8007C3500087C350008803500080244034669
:1021B800934200D1704703F8011BF9E7FEE700BF1F
:1021C8007FB500241023CDE90234036815469E69C3
:1021D80012686B46CDE90044B0479DF8043003F01F
:1021E8000603062B03BF009B2B600120204604B08A
:1021F80070BD0098904214BF01200620704700006F
:1022080010B5034B0360044600F02BFC204610BDBC
:10221800F432000810B50446FFF7F2FF2046082103
:1022280000F042F8204610BD2DE9F0411F46DDE9D7
:102238000834DDF8188098450646154607D10799F1
:1022480000F012FC18B165710020BDE8F081394634
:10225800304600F009FC0028F6D00123C4F80080BD
:102268002571A371F0E738B515461C4600F0FCFB54
:1022780020B10823E36006232560237138BD73B5B8
:1022880005460C4601921E4600F0EEFB50B9032E9F
:1022980008D82368019A5B692946204602B0BDE840
:1022A8007040184702B070BD00F028BE1EB400F0A0
:1022B8009CF81EBCFFF7EEF80378472B17D143783C
:1022C8004E2B14D18378552B11D1C378432B0ED1C3
:1022D8000379432B0BD143792B2B08D183792B2BF3
:1022E80005D1C07901288CBF00200120704700204B
:1022F800704700002DE9F3411D460378472B0E4631
:102308000246C17913D143784E2B10D18378552BCF
:102318000DD1C378432B0AD10379462B07D14379D2
:102328004F2B04D18379522B01D1002931D010468B
:10233800FFF7C2FF80F00100C4B200230020019023
:1023480053BB5CBB01290ABF52F8203CA2F1200311
:10235800783B012908BF52F8202C1C6818BF583256
:102368000192236820469B689847C8B1019B1B6867
:1023780001930227336801AAD3F81080214601236C
:102388003046C04770B1019B2B60384602B0BDE8AB
:10239800F08101230C46D1E7034CE2E7034CE0E768
:1023A8000127E7E70746F0E718330008203300085D
:1023B80010B5044600F032F802462046A4F1200188
:1023C800FFF77AFF60B154F8043C0133012B44F85D
:1023D800043C03D1936844F8083C9160012010BD87
:1023E8009368002BF9D000F0A5FA10B500F016F8A4
:1023F800826801460AB900F09DFA02F120042046DD
:10240800FFF75AFF40B1D369013BD36113B9906913
:1024180088609361204610BD8860FBE700487047DC
:102428009800002030B500231A4610F8015B05F02B
:102438007F04944023432C0602F10702F5D40B6075
:1024480030BD30B500231A4610F8014B04F07F0563
:1024580095402B43250602F10702F5D41F2A06D81A
:10246800640642BF4FF0FF3404FA02F213430B60D4
:1024780030BD50282DE9F3410646884615461F46CB
:1024880008D1033222F0030050F8044B3C6002B03C
:10249800BDE8F08100F00F030C2B2ED8DFE803F025
:1024A80025071D25292D2D2D2D182125290001A9A8
:1024B8002846FFF7B7FF019C002CE7D006F0700311
:1024C800102B08BFA8464444330648BF2468DDE7FC
:1024D80001A92846FFF7B5FFEDE7284630F8024B7B
:1024E800EAE7284630F9024BE6E7284650F8044B5D
:1024F800E2E7284650F8084BDEE700F08DFD08B506
:102508000346FF2B084610D003F07002302A12D081
:1025180007D8202A0BD002D813F0600F05D000F09E
:102528007BFD402A0BD0502AF9D1002008BDBDE818
:10253800084000F06EBDBDE8084000F067BDBDE88A
:102548000840FFF787B913B50C4601462046CDE988
:102558000032FFF7D4FFDDE900320146204602B021
:10256800BDE81040FFF785BF73B50C461546064613
:1025780028B3FFF76FF9034620462B6010F8011BBC
:10258800FF291ED002462B1D3046FFF7DCFF10F84E
:10259800013B2B75FF2B16D010232B7501A9FFF7D4
:1025A80041FF019B0344EB6010F8013B6B7501A9E7
:1025B800FFF738FF019B03442B6102B070BD03464F
:1025C800DAE76B60E3E70023EDE71FB503AB0093A1
:1025D80000230A461946FEF7A7FB039805B05DF8E5
:1025E80004FB00002DE9F04F91B00023059300F0A3
:1025F8000303012B06460C4617460ED0022B03D0C8
:10260800002B3BD101073BD539462046FFF70CF993
:1026180090B3092011B0BDE8F08F020706D40D6A07
:1026280038460D21FFF7D1FF85422BD00220002329
:1026380006F008060DF1280A0643CDF800A00C2282
:10264800194638460A94FEF795FB062E1CD1D4F895
:102658003080D4E90A59B8F1000F0CBF4FF0010BD4
:102668004FF0030B16F0080600F00781BBF1010FCD
:1026780040F0FF8000F05EF90820CBE700F0CCFCCA
:102688000120D4E70620D2E73846FFF7E9F881466B
:102698000028B9D0524601463846FFF765FF39464B
:1026A80005469DF83C00FFF72AFF0F210C9038469D
:1026B800FFF78BFF20F0010808F1FF380E9BAB42B3
:1026C80040F2BF802A469DF83D1006AB0020FFF778
:1026D8003AFF9DF83D10024607AB0020FFF733FF95
:1026E80008AB02469DF83D100020FFF72CFF09A912
:1026F800FFF798FE0A9B069A13444345054601D9FD
:102708000E9DDBE7079A13444345D7D9DDF82080AF
:10271800B8F1000F01D00B9B9844099D15B10E9894
:10272800013D0544B8F1000F3FF46EAF002D00F0F5
:10273800F28016F00803029334D0472323704E2307
:1027480063705523A3704323E370462323714F23FB
:1027580063715223A3710023E3714FF0000B07A9A3
:102768002846FFF76EFE08A90390FFF76AFE07994F
:10277800002963D03ADD9DF83C00FF2832D000F0F4
:102788000703042B3FF67AAF01A252F823F000BFEB
:10279800F127000885260008BF270008F127000850
:1027A800E9270008E379012B0CBF54F8203C04F119
:1027B80058030593D1E702250D9A09AB05FB1122B1
:1027C8000C99FFF756FE099931B15CB305AB0022AD
:1027D8002046FFF78FFD28B3079D4FF0030B34E029
:1027E8000825E9E70025E7E70425E5E7C1F17F517A
:1027F80001F57F110D9B01F57F513F3103EB8105F9
:10280800BCB1029AAAB9059B0993043D55F8041F67
:102818000029E1D009AB002229442046FFF76AFDD0
:102828000028F3D0089D002D71D0039B2B441D4632
:1028380095E753F82130002BF4D1CDE74FF0010B89
:10284800F0E70025A8464FF0010BF3077FF50AAF24
:10285800BBF1020F3FF4D8AE0D213846059EFFF7B5
:10286800B4FEC4E90A59C4E90806C4F83080062051
:10287800D0E6002D22DA00F06FF8BBF1010F02D18B
:10288800204600F05AFB002D18DA524649463846D1
:10289800FFF76AFE9DF83C003946FFF730FE0D9AB7
:1028A8000C90EB4302EB830353F826200AB1013660
:1028B800FAE70422C4E90A60C4E90C23002309AE3C
:1028C8001A461946009638460994FEF753FA00232B
:1028D80019460122009638460995FEF74BFA0F2152
:1028E8003846FFF772FE00F0010040EA08000023B6
:1028F800099000960F2219463846FEF73BFABBF1BD
:10290800020F02D12046FFF753FD072082E6BBF1F4
:10291800000F3FF479AE4FF0020B96E708B58047F9
:1029280000F07AFB024B1868BFF35B8F704700BF5B
:102938007400002008B5FFF7F5FFFFF7EFFF08B5B3
:102948008047FFF7F7FF0000024B1868BFF35B8F63
:10295800704700BF7000002008B5FFF7F5FFFFF7CC
:10296800EEFF000010B5034B03600446FFF748FC78
:10297800204610BDA833000810B50446FFF7F2FF43
:1029880020460C21FFF790FC204610BDF7B5089FA4
:10299800974205460E4614460AD0A868026808976A
:1029A800156A31462246AC4603B0BDE8F0406047A0
:1029B8001946019300F058F8019B0028EDD0062035
:1029C80003B0F0BD2DE9F14F0D461946DDE90A4B7C
:1029D800DDE90CA681461746984600F045F890B107
:1029E800002D3460377109DB61198A450CBF062157
:1029F8000121B171002001B0BDE8F08F0235F9D195
:102A08000123B371F6E7544506D15946484600F00C
:102A18002BF808B17771EDE7D9F808000368CDE91C
:102A28000CA6CDE90A4BDC693A4643462946A4463A
:102A380001B0BDE8F04F60472DE9F04107460C466C
:102A480015461E46FFF70FFC48B9B86803689F692A
:102A58002A4633462146BC46BDE8F0416047BDE8FA
:102A6800F081704700207047814208B50ED0406859
:102A780003782A2B0CD049680B782A2B08BF013120
:102A8800FEF7FAFEB0FA80F0400908BD0120FCE725
:102A98000020FAE710B5034B03600446FFF7B0FBCC
:102AA800204610BD2034000810B50446FFF7F2FF99
:102AB80020461821FFF7F8FB204610BD2DE9F74FF7
:102AC800DDF830904A4504460F4616469A4624D00B
:102AD800D4F80C8004EBC804B8F1000F28D0E568DE
:102AE800AA0721D52A1215F0010503D0FB1C1BD01B
:102AF80033689A58A0680368CDF80090D3F820B0DE
:102B0800324453463946D84703280DD915B140F009
:102B18000100C0B203B0BDE8F08F1946FFF7A4FF6B
:102B28000028D5D00620F5E708F1FF38083CD3E7A0
:102B38000120EFE7F0B40D1E049C06DB5019844217
:102B480014BF01200620F0BC7047023505D0056887
:102B580004942C6AA446F0BC60470120F3E72DE9F1
:102B6800F04F91B09A461D9C0692A3681C9A88461D
:102B7800D90644BF8368A3601A9B9342814607D154
:102B88001B99FFF771FF18B1069B637100277FE05F
:102B980051464846FFF768FFC0B11A9B2360B8F159
:102BA800000F069B23710BDB1A9B98441C9B434523
:102BB8000CBF4FF006084FF0010884F80680E5E7DF
:102BC80018F1020FE2D10123A371DFE7B8F1000F7A
:102BD800A9BF1C9B0790A3EB0803079300270223B8
:102BE800CDE9097301230893069B43F001030B9376
:102BF800D9F80CB009EBCB030593BBF1000F00F03B
:102C0800D4800023CDE90D33059BA568DB680F95BB
:102C1800DA0743BF1A980B9A0068069A4FEA2321ED
:102C280048BF41581A980144079838B18842089E0D
:102C38002CBF00200120B04200F0B3809B0707D4CE
:102C480018F1020F02D1AE0700F0AD8002F0FD02CC
:102C5800059B98680DAD036803951C9D02951B9D07
:102C6800CDE900154146DD695346A84763799DF8CB
:102C780039209DF83A500D991343062D637101D000
:102C8800022D09D19DF8383021602371A5710746BE
:102C9800384611B0BDE8F08F2268A7B9AAB99DF8E7
:102CA80038202160227121B11BB1D9F80830DD0725
:102CB800EDD56379042BEAD0059B083B0BF1FF3B6C
:102CC8000593074699E7002A37D0914206D1237920
:102CD8009DF83820134323713846EAE709B90028DC
:102CE800FAD0032BA67904D9D90729D5A3689B075D
:102CF80026D57EB9032D05D9EE0741D5D9F8083078
:102D080098073DD51C9B009341461B9B5046FFF7F7
:102D180011FF0646E5B9032E05D9F10732D5D9F8D2
:102D280008309A072ED51C9B00930D9A1B9B414691
:102D38005046FFF7FFFE05460AE00029D1D1CBE750
:102D4800012E38BF0126012D38BF0125F6B2EDB29C
:102D580085EA0603DBB2032B16D9032D81BF0D9B31
:102D680023602E469DF8383086BF237100203846F0
:102D7800B307A67102D416F001069AD1002086E79F
:102D88000126E5E70125E3E73540EDB20023032DF1
:102D9800236003D90223A371012078E70120A071E1
:102DA80087E701230993384686E7099B002B3FF400
:102DB8006FAF0A9B012B3FF46BAF01230A93CDF849
:102DC80020B015E72DE9F04F2DED028B89B008EE04
:102DD800101A064617461C46FFF745FA054600280E
:102DE8005FD1D4F80890D6F80CA019F0100F18BFCE
:102DF800D6F8089009F0010306EBCA0803930DF111
:102E0800100BBAF1000F74D00023D8F80C200493EB
:102E18008DF814300023079302F00103019302F0A8
:102E280002030293DDE902130B43CDF8189004D195
:102E38000AF1FF3AA8F10808E3E7002F37D0019B11
:102E480012120BB13B689A583A44D8F80800036844
:102E580018EE101A9D695B46A84705460028E7D07A
:102E6800079B082B04D1019B13B1D8F808300793AE
:102E78009DF81430032B05D9029A1AB923F00203DE
:102E88008DF81430E168D1B99BE80F0084E80F0091
:102E98002379032B05D99A070BD5B36813F0010FD3
:102EA800C6D1284609B0BDEC028BBDE8F08F3A4682
:102EB800CBE7DB07F5D5B36813F0020FF0E723681B
:102EC800049A934204D00023236002232371E8E785
:102ED8002BB123799DF8142013432371A8E7079891
:102EE8000828F2D00829F0D0FFF7BEFD0028F0D15D
:102EF800EBE72579003D18BF0125D2E700F094B82B
:102F08000378472B17D143784E2B14D18378552B50
:102F180011D1C378432B0ED10379432B0BD14379BD
:102F28002B2B08D183792B2B05D1C07901288CBF95
:102F38000020012070470020704710B5044648B1B2
:102F480000F03BF82046FFF7DBFF18B154F8140CEB
:102F5800FFF7E4FCFFF7EEFC38B50246FFF7D0FFB9
:102F6800044640B152F8184C0025104600F025F8E8
:102F78001DB1FFF7F1FC0125F7E72046FFF7DFFC5D
:102F88000378472B17D143784E2B14D18378552BD0
:102F980011D1C378432B0ED10379432B0BD143793D
:102FA8002B2B08D183792B2B05D1C07901288CBF15
:102FB8000020012070470020704738B50446FFF70D
:102FC8002DFA056802462046A4F12001FFF7D8FF34
:102FD80028B90DB1FFF7AEFC1160284638BD54F88A
:102FE8000C3C002BB4BFC3F10103013344F80C3C83
:102FF80053688D4203F1FF33536020461CBF44F8E9
:10300800105C1160656AFDF787FEE6E708B500F019
:1030180003F808B5FFF7FAFF08B5062000F08EF8A8
:103028000120FFF7CBF80000024B0146186800F0BA
:1030380011B800BF0C0000200A44914200F1FF3390
:1030480000D1704710B511F8014B03F8014F9142B8
:10305800F9D110BD37B5002944D051F8043C01908E
:10306800002BA1F10404B8BFE41800F083F81E4A4D
:103078000198136833B96360146003B0BDE8304049
:1030880000F07EB8A34208D9256861198B4201BFB8
:1030980019685B6849192160EDE71A465B680BB14E
:1030A800A342FAD911685518A5420BD124682144C6
:1030B8005418A3421160E0D11C685B685360214436
:1030C8001160DAE702D90C230360D6E72568611995
:1030D8008B4204BF19685B68636004BF49192160AB
:1030E8005460CAE703B030BDA40000201F2938B5DA
:1030F80004460D4604D9162303604FF0FF3038BD4F
:10310800426C12B152F821304BB9204600F030F829
:103118002A4601462046BDE8384000F017B8012B82
:103128000AD0591C03D1162303600120E7E70024C5
:1031380042F82540284698470020E0E7024B014620
:103148001868FFF7D3BF00BF0C00002038B5074D43
:1031580000230446084611462B6000F021F8431C62
:1031680002D12B6803B1236038BD00BFA80000203E
:1031780000F00EB8014800F009B800BFAC0000200C
:10318800014800F004B800BFAC0000207047704749
:10319800024B58221A604FF0FF307047A8000020F9
:1031A800024B58221A604FF0FF307047A8000020E9
:1031B800F8B500BFF8BC08BC9E467047F8B500BF1C
:0831C800F8BC08BC9E467047EC
:1031D000000000000C320008012100085521000801
:1031E0001105000800000000383200080D21000819
:1031F0003D210008ED0400084E394D79447269768E
:103200006572733347706945000000002034000880
:10321000F8310008000000000100000078320008CA
:10322000020400004E394D79447269766572733339
:1032300047706F4500000000203400082432000869
:1032400000000000010000007832000802040000C5
:103250000000000000000000010203040607080946
:103260004E394D7944726976657273384770696F6B
:103270004261736545000000F432000860320008C6
:103280004E394D7944726976657273344770696F4F
:1032900045000000203400088032000800000000D3
:1032A0000100000078320008020400000000000065
:1032B000943200081921000825210008A8330008CD
:1032C000C8320008CC3300084E31305F5F63787835
:1032D000616269763131375F5F636C6173735F740C
:1032E0007970655F696E666F450000000000000040
:1032F000BC320008092200081D2200086D2A0008BF
:103300006D2A000887220008C92100086F220008E2
:1033100031220008FB210008F4320008283300089D
:10332000F4320008483300084E31305F5F6378782C
:10333000616269763131355F5F666F726365645FC4
:10334000756E77696E6445004E31305F5F637878E3
:10335000616269763131395F5F666F726569676E88
:103360005F657863657074696F6E4500A833000807
:1033700078330008BC3200084E31305F5F637878E4
:10338000616269763132305F5F73695F636C61736C
:10339000735F747970655F696E666F450000000049
:1033A000000000006C3300086D2900088129000826
:1033B0006D2A00086D2A000887220008C92100082C
:1033C000412A0008CD29000895290008F432000898
:1033D000D4330008537439747970655F696E666F11
:1033E00000000000A8330008F0330008BC320008D9
:1033F0004E31305F5F637878616269763132315F78
:103400005F766D695F636C6173735F747970655F1C
:10341000696E666F4500000000000000E43300089C
:103420009D2A0008B12A00086D2A00086D2A0008AC
:1034300087220008C9210008CD2D0008672B00084D
:04344000C52A000891
:10344400A9F1FF7FB0A80D00FFFF0117041C0000C5
:103454002A048C010036048A01003E3A7A0086016F
:103464000400000008B10181B0B000840000000035
:1034740008B10181B0B000840000000008B10181EE
:08348400B0B00084000000005C
:10348C004CCDFF7F0100000048CDFF7F00841480ED
:10349C00E0CDFF7FA4FFFF7F78CEFF7F010000000F
:1034AC00D4D0FF7FB0B0A880DAD0FF7F010000003D
:1034BC0022D1FF7FA8FFFF7F24D1FF7F01000000F6
:1034CC0074D5FF7FB0A9028008D6FF7FB0B0A8806A
:1034DC0058D6FF7F0100000064D6FF7FB0B0AA80F1
:1034EC0098D6FF7FAE71B2805CD7FF7F01000000E1
:1034FC0058D7FF7FAB3F3880B8D7FF7F0100000063
:10350C00C0D7FF7FB0B0AA80FCD7FF7F01000000BE
:10351C00A8D8FF7FAA0DB28024D9FF7FB0AF088056
:10352C00C4DBFF7F01000000C8DBFF7FAD3F0280E2
:10353C0044DEFF7F0100000020E0FF7F0084048058
:10354C0034E0FF7F0100000030E0FF7FB0AD04806D
:10355C00D4E2FF7FB0A80380F8E2FF7F0CFFFF7F6F
:10356C00FCE2FF7F10FFFF7F08E3FF7F01000000FC
:04357C00BD01000885
:0435800099010008A5
:1035840001000000100000000024F40010000020DE
:103594000000000000000000000000000000000027
:1035A4000000000000000000000000000000000017
:1035B4000000000000000000000000000000000007
:1035C40000000000000000000000000000000000F7
:1035D40000000000000000000000000000000000E7
:1035E40000000000000000000000000000000000D7
:0835F4003D2900082130000808
:04000005080020AD22
:00000001FF
